:020000040800F2
:1000000000300020615600082D5500082F550008CB
:100010003155000833550008355500080000000030
:10002000000000000000000000000000375500083C
:1000300039550008000000003B5500083D550008F8
:10004000B1560008B1560008B1560008B156000874
:10005000B1560008B1560008B1560008B156000864
:10006000B1560008B1560008B1560008B156000854
:10007000B1560008B1560008B1560008B156000844
:10008000B1560008B1560008B1560008B156000834
:10009000B1560008B1560008B1560008B156000824
:1000A000B1560008B1560008B1560008B156000814
:1000B000415500085955000800000000B1560008DD
:1000C000B15600080000000000000000B156000812
:1000D0000000000071550008B1560008B156000834
:1000E000B1560008B15600080000000000000000F2
:1000F0000000000000000000000000000000000000
:1001000000000000000000000000000000000000EF
:100110000000000000000000B1560008B1560008C1
:1001200000000000000000000000000000000000CF
:1001300000000000000000000000000000000000BF
:10014000B1560008B156000800000000B156000882
:10015000B1560008B1560008B1560008B156000863
:10016000B1560008B1560008000000000000000071
:10017000000000000000000000000000000000007F
:0801800000000000B156000868
:1001900010B5054C237833B9044B13B10448AFF3C1
:1001A00000800123237010BD8006002000000000A5
:1001B000309B000808B5034B1BB103490348AFF35C
:1001C000008008BD0000000084060020309B00086D
:1001D000034613F8012B002AFBD1181A0138704787
:1001E00001F0FF01102A2BDB10F0070F08D010F8E8
:1001F000013B013A8B422DD010F0070F42B3F6D1EC
:10020000F0B441EA012141EA014122F007047FF004
:1002100000070023F0E80256083C85EA010586EA5B
:10022000010685FA47F5A3FA87F586FA47F6A5FA97
:1002300087F68EB9EED1F0BC01F0FF0102F00702A3
:1002400032B110F8013B013A83EA010313B1F8D14E
:100250000020704701387047002D06BF354603382F
:10026000073815F0010F07D1013015F4807F02BF68
:10027000013015F4C03F0130F0BC0138704700BFB9
:1002800081F0004102E000BF83F0004330B54FEA47
:1002900041044FEA430594EA050F08BF90EA020FB4
:1002A0001FBF54EA000C55EA020C7FEA645C7FEA47
:1002B000655C00F0E2804FEA5454D4EB5555B8BF6A
:1002C0006D420CDD2C4480EA020281EA030382EADB
:1002D000000083EA010180EA020281EA0303362D6D
:1002E00088BF30BD11F0004F4FEA01314FF4801C40
:1002F0004CEA113102D0404261EB410113F0004F52
:100300004FEA03334CEA133302D0524263EB430308
:1003100094EA050F00F0A780A4F10104D5F1200EA6
:100320000DDB02FA0EFC22FA05F2801841F1000101
:1003300003FA0EF2801843FA05F359410EE0A5F1D5
:1003400020050EF1200E012A03FA0EFC28BF4CF006
:10035000020C43FA05F3C01851EBE37101F00045BC
:1003600007D54FF0000EDCF1000C7EEB00006EEBC9
:100370000101B1F5801F1BD3B1F5001F0CD3490853
:100380005FEA30004FEA3C0C04F101044FEA4452AA
:1003900012F5800F80F09A80BCF1004F08BF5FEA31
:1003A000500C50F1000041EB045141EA050130BD11
:1003B0005FEA4C0C404141EB010111F4801FA4F1B4
:1003C0000104E9D191F0000F04BF01460020B1FA09
:1003D00081F308BF2033A3F10B03B3F120020CDA41
:1003E0000C3208DD02F1140CC2F10C0201FA0CF01F
:1003F00021FA02F10CE002F11402D8BFC2F1200C84
:1004000001FA02F120FA0CFCDCBF41EA0C01904039
:10041000E41AA2BF01EB0451294330BD6FEA040482
:100420001F3C1CDA0C340EDC04F11404C4F120026D
:1004300020FA04F001FA02F340EA030021FA04F37F
:1004400045EA030130BDC4F10C04C4F1200220FAD6
:1004500002F001FA04F340EA0300294630BD21FA14
:1004600004F0294630BD94F0000F83F4801306BFDA
:1004700081F480110134013D4EE77FEA645C18BFCE
:100480007FEA655C29D094EA050F08BF90EA020F65
:1004900005D054EA000C04BF1946104630BD91EA5D
:1004A000030F1EBF0021002030BD5FEA545C05D160
:1004B0004000494128BF41F0004130BD14F580049F
:1004C0003CBF01F5801130BD01F0004545F0FE4113
:1004D00041F470014FF0000030BD7FEA645C1ABF48
:1004E000194610467FEA655C1CBF0B46024650EA7F
:1004F000013406BF52EA033591EA030F41F40021AB
:1005000030BD00BF90F0000F04BF0021704730B530
:100510004FF4806404F132044FF000054FF0000105
:1005200050E700BF90F0000F04BF0021704730B5C6
:100530004FF4806404F1320410F0004548BF40429B
:100540004FF000013EE700BF42004FEAE2014FEAF0
:1005500031014FEA02701FBF12F07F4393F07F4FCB
:1005600081F06051704792F0000F14BF93F07F4FFD
:10057000704730B54FF4607401F0004521F0004140
:1005800020E700BF50EA010208BF704730B54FF0C6
:1005900000050AE050EA010208BF704730B511F0CB
:1005A000004502D5404261EB41014FF4806404F103
:1005B00032045FEA915C3FF4DCAE4FF003025FEA85
:1005C000DC0C18BF03325FEADC0C18BF033202EB0D
:1005D000DC02C2F1200300FA03FC20FA02F001FA67
:1005E00003FE40EA0E0021FA02F11444C1E600BF06
:1005F00070B54FF0FF0C4CF4E06C1CEA11541DBFB9
:100600001CEA135594EA0C0F95EA0C0F00F0DEF883
:100610002C4481EA030621EA4C5123EA4C5350EA68
:10062000013518BF52EA033541F4801143F48013B9
:1006300038D0A0FB02CE4FF00005E1FB02E506F04A
:100640000042E0FB03E54FF00006E1FB03569CF09F
:10065000000F18BF4EF0010EA4F1FF04B6F5007FA5
:1006600064F5407404D25FEA4E0E6D4146EB060617
:1006700042EAC62141EA55514FEAC52040EA5E50A0
:100680004FEACE2EB4F1FD0C88BFBCF5E06F1ED84A
:10069000BEF1004F08BF5FEA500E50F1000041EB81
:1006A000045170BD06F0004646EA010140EA02002E
:1006B00081EA0301B4EB5C04C2BFD4EB0C0541EA50
:1006C000045170BD41F480114FF0000E013C00F365
:1006D000AB8014F1360FDEBF002001F0004170BD89
:1006E000C4F10004203C35DA0C341BDC04F11404A2
:1006F000C4F1200500FA05F320FA04F001FA05F22E
:1007000040EA020001F0004221F0004110EBD370FA
:1007100021FA04F642EB06015EEA430E08BF20EA26
:10072000D37070BDC4F10C04C4F1200500FA04F3C9
:1007300020FA05F001FA04F240EA020001F000415B
:1007400010EBD37041F100015EEA430E08BF20EACE
:10075000D37070BDC4F1200500FA05F24EEA020E16
:1007600020FA04F301FA05F243EA020321FA04F045
:1007700001F0004121FA04F220EA020000EBD370FC
:100780005EEA430E08BF20EAD37070BD94F0000FFC
:100790000FD101F00046400041EB010111F4801F30
:1007A00008BF013CF7D041EA060195F0000F18BFE1
:1007B000704703F00046520043EB030313F4801F1D
:1007C00008BF013DF7D043EA0603704794EA0C0FD7
:1007D0000CEA135518BF95EA0C0F0CD050EA4106ED
:1007E00018BF52EA4306D1D181EA030101F000416A
:1007F0004FF0000070BD50EA410606BF1046194692
:1008000052EA430619D094EA0C0F02D150EA01369D
:1008100013D195EA0C0F05D152EA03361CBF1046DE
:1008200019460AD181EA030101F0004141F0FE417D
:1008300041F470014FF0000070BD41F0FE4141F401
:10084000780170BD70B54FF0FF0C4CF4E06C1CEA01
:1008500011541DBF1CEA135594EA0C0F95EA0C0FB6
:1008600000F0A7F8A4EB050481EA030E52EA033571
:100870004FEA013100F088804FEA03334FF0805592
:1008800045EA131343EA12634FEA022245EA1115BF
:1008900045EA10654FEA00260EF000419D4208BF70
:1008A000964244F1FD0404F5407402D25B084FEA1D
:1008B0003202B61A65EB03055B084FEA32024FF4C9
:1008C00080104FF4002CB6EB020E75EB030E22BF26
:1008D000B61A754640EA0C005B084FEA3202B6EBE6
:1008E000020E75EB030E22BFB61A754640EA5C0095
:1008F0005B084FEA3202B6EB020E75EB030E22BF25
:10090000B61A754640EA9C005B084FEA3202B6EB25
:10091000020E75EB030E22BFB61A754640EADC00E4
:1009200055EA060E18D04FEA051545EA16754FEA46
:1009300006164FEAC30343EA52734FEAC2025FEA64
:100940001C1CC0D111F4801F0BD141EA00014FF0F3
:1009500000004FF0004CB6E711F4801F04BF0143C4
:100960000020B4F1FD0C88BFBCF5E06F3FF6AFAEE0
:10097000B5EB030C04BFB6EB020C5FEA500C50F170
:10098000000041EB045170BD0EF0004E4EEA1131F3
:1009900014EB5C04C2BFD4EB0C0541EA045170BDFA
:1009A00041F480114FF0000E013C90E645EA060E3E
:1009B0008DE60CEA135594EA0C0F08BF95EA0C0F6C
:1009C0003FF43BAF94EA0C0F0AD150EA01347FF4B4
:1009D00034AF95EA0C0F7FF425AF104619462CE78B
:1009E00095EA0C0F06D152EA03353FF4FDAE1046EE
:1009F000194622E750EA410618BF52EA43067FF43F
:100A0000C5AE50EA41047FF40DAF52EA43057FF4CE
:100A1000EBAE12E74FF0FF3C06E000BF4FF0010CD9
:100A200002E000BF4FF0010C4DF804CD4FEA410C3D
:100A30007FEA6C5C4FEA430C18BF7FEA6C5C1BD00A
:100A400001B050EA410C0CBF52EA430C91EA030F8B
:100A500002BF90EA020F0020704710F1000F91EAE8
:100A6000030F58BF994208BF90422CBFD8176FEAB6
:100A7000E37040F0010070474FEA410C7FEA6C5C84
:100A800002D150EA013C07D14FEA430C7FEA6C5C8B
:100A9000D6D152EA033CD3D05DF8040B704700BFB7
:100AA0008446104662468C461946634600E000BF05
:100AB00001B5FFF7B7FF002848BF10F1000F01BDD7
:100AC0004DF808EDFFF7F4FF0CBF012000205DF8A2
:100AD00008FB00BF4DF808EDFFF7EAFF34BF012027
:100AE00000205DF808FB00BF4DF808EDFFF7E0FFC0
:100AF00094BF012000205DF808FB00BF4DF808ED11
:100B0000FFF7CEFF94BF012000205DF808FB00BF77
:100B10004DF808EDFFF7C4FF34BF012000205DF859
:100B200008FB00BF4FEA410C7FEA6C5C02D150EA3F
:100B3000013C0AD14FEA430C7FEA6C5C02D152EAD5
:100B4000033C02D14FF0000070474FF001007047A6
:100B50004FEA410212F5001215D211D56FF47873E5
:100B6000B3EB625212D94FEAC12343F0004343EA88
:100B7000505311F0004F23FA02F018BF4042704763
:100B80004FF00000704750EA013005D111F00040ED
:100B900008BF6FF0004070474FF00000704700BF83
:100BA0004A0011D212F5001211D20DD56FF47873EC
:100BB000B3EB62520ED44FEAC12343F0004343EA41
:100BC000505323FA02F070474FF00000704750EA8C
:100BD000013002D14FF0FF3070474FF000007047F6
:100BE0004FEA4102B2F1E04324BFB3F5001CDCF14F
:100BF000FE5C0DD901F0004C4FEAC0024CEA507087
:100C0000B2F1004F40EB830008BF20F001007047B5
:100C100011F0804F21D113F13872BCBF01F00040B8
:100C2000704741F480114FEA5252C2F11802C2F1EA
:100C3000200C10FA0CF320FA02F018BF40F001006B
:100C40004FEAC1234FEAD32303FA0CFC40EA0C001D
:100C500023FA02F34FEA4303CCE77FEA625307D15A
:100C600050EA01331EBF4FF0FE4040F44000704791
:100C700001F0004040F0FE4040F40000704700BF2B
:100C800053B94AB9002908BF00281CBF4FF0FF31F3
:100C90004FF0FF3000F07AB9ADF1080C6DE904CEE9
:100CA00000F006F8DDF804E0DDE9022304B0704747
:100CB0002DE9F0478C460D460446089E002B51D185
:100CC0008A4217466DD9B2FA82FEBEF1000F0BD0F0
:100CD000CEF1200C01FA0EF520FA0CFC02FA0EF708
:100CE0004CEA050C00FA0EF44FEA174A250CBCFB3F
:100CF000FAF81FFA87F90AFB18CC45EA0C4508FBFD
:100D000009F3AB420AD9ED1908F1FF3280F02381D3
:100D1000AB4240F22081A8F102083D44ED1AA4B292
:100D2000B5FBFAF00AFB105544EA054400FB09F94B
:100D3000A14509D9E41900F1FF3380F00A81A145EA
:100D400040F2078102383C44A4EB090440EA084021
:100D50000021002E61D024FA0EF400233460736069
:100D6000BDE8F0878B4207D9002E54D0002186E8D9
:100D700021000846BDE8F087B3FA83F1002940F06E
:100D80008E80AB4202D3824200F2FA80841A65EB75
:100D900003050120AC46002E3FD086E81010BDE8C8
:100DA000F08712B90127B7FBF2F7B7FA87FEBEF159
:100DB000000F34D1EB1B3A0C1FFA87FC0121B3FB67
:100DC000F2F8250C02FB183345EA03450CFB08F347
:100DD000AB4207D9ED1908F1FF3002D2AB4200F265
:100DE000D1808046ED1AA3B2B5FBF2F002FB10559C
:100DF00043EA05440CFB00FCA44507D9E41900F1C3
:100E0000FF3302D2A44500F2B8801846A4EB0C04CC
:100E100040EA08409DE731463046BDE8F087CEF114
:100E2000200405FA0EF307FA0EF720FA04F83A0C3C
:100E300025FA04F448EA0308B4FBF2F14FEA184536
:100E400002FB11441FFA87FC45EA044501FB0CF341
:100E5000AB4200FA0EF409D9ED1901F1FF3080F030
:100E60008A80AB4240F2878002393D44EB1A1FFA78
:100E700088F5B3FBF2F002FB103345EA034500FBB3
:100E80000CF3AB4207D9ED1900F1FF386FD2AB423A
:100E90006DD902383D44EB1A40EA01418FE7C1F1B8
:100EA000200722FA07F88B4005FA01F448EA030309
:100EB00020FA07FE4FEA134CFD404EEA040EB5FB44
:100EC000FCF94FEA1E440CFB19551FFA83F844EA5B
:100ED000054509FB08F4AC4202FA01F200FA01FAF6
:100EE00008D9ED1809F1FF3043D2AC4241D9A9F13C
:100EF00002091D442D1B1FFA8EFEB5FBFCF00CFBF6
:100F000010554EEA054400FB08F8A04507D9E4183F
:100F100000F1FF3529D2A04527D902381C4440EA08
:100F20000940A4EB0804A0FB02894C45C6464D4687
:100F300015D312D056B1BAEB0E0364EB050404FAD4
:100F400007F7CB401F43CC40376074600021BDE8F9
:100F5000F0871846F8E69046E0E6C245EAD2B8EBDC
:100F6000020E69EB03050138E4E72846D7E740465F
:100F700091E78146BEE7014678E702383C4445E701
:100F8000084608E7A8F102083D442BE7704700BF78
:100F900038B50E4A0E4B054618784FF47A73B3FBFA
:100FA000F0F31068B0FBF3F000F0D4FC044658B93D
:100FB0000F2D09D8024629464FF0FF3000F08AFC79
:100FC000044B20461D6038BD012038BD08000020BC
:100FD0000000002004000020074A08B5136843F011
:100FE00010031360032000F063FC0020FFF7D0FF24
:100FF00004F05EF9002008BD00200240034A044BC3
:1010000011681B780B441360704700BF0C08002068
:1010100000000020014B1868704700BF0C0800203A
:1010200038B50446FFF7F6FF631C1CBF054B1B7861
:10103000054618BFE418FFF7EDFF401B8442FAD8BD
:1010400038BD00BF0000002038B50368044698682A
:1010500000F00300012801D0002038BD1A68D20733
:10106000FAD59A6802F00D02012A1BD19A6842F063
:1010700002029A6003221A60FFF7CCFF054623683C
:101080009B68DB07E8D5FFF7C5FF401B0228F6D9B0
:10109000636C43F010036364A36C43F00103A36427
:1010A000012038BD636C43F010036364A36C43F00C
:1010B0000103A36438BD000038B503689A6802F0E4
:1010C0000302012A044604D11A68D20701D5002080
:1010D00038BD99680E4A11420FD19A6842F0010258
:1010E0009A60FFF797FF054623681B68DB07EED47D
:1010F000FFF790FF401B0228F6D9636C43F0100302
:101100006364A36C43F00103A364012038BD00BFF6
:101110003F00008070B596B000230093044600287D
:1011200000F0E380426CD50600F1CC80436C002BCC
:1011300000F09280002023689A68D20002D59B6854
:101140009B000AD5636C23F0120343F01003636421
:10115000A36C43F00103A3640120636CDE0600F17D
:10116000BE80002840F0BB802368996811F004011C
:1011700040F0B580626C22F4817242F00202B3F159
:10118000A04F62640CBF5A4A4FF0A04201929A6885
:1011900002F00302012A02D11A68D50710D4019A7D
:1011A0003AB1956805F00305012D02D11268D20706
:1011B00006D4504D6668AA6822F440323243AA60D1
:1011C000A26BA668E569012AE26842EA060218BF36
:1011D0004FF4805142EA45320A43616A012907D13E
:1011E000002D71D1A16A013942EA414242F48032B4
:1011F000E16A01291EBF256B29430A43996811F052
:101200000C0F0BD1D968A56921F4804121F00201AE
:10121000D960616B490041EA85310A43DD6836498E
:1012200029400A43DA602269012A05BF196B226A44
:101230001A6B02F1FF3206BF21F00F010A4322F0C0
:101240000F021A630023A364636C23F0030343F0CB
:101250000103636416B070BD83640365C36480F8E2
:10126000403004F041F823689B68D8003FF562AF36
:101270002046FFF7E9FE626CD1063FF55CAF00281F
:101280007FF459AF636C23F4885323F0020343F0D7
:101290000203636423689A6822F040529A609A6855
:1012A00042F080529A60154B154A1B68B3FBF2F26C
:1012B0000A2353430093009B002B3FF43BAF009B5A
:1012C000013BF7E7184648E7616C21F0220141F045
:1012D00020016164A16C41F00101A16488E7636CA5
:1012E00023F0120343F0100363640120B2E700BF50
:1012F000000100500003005007C0F0FF080000206C
:1013000040420F0038B503689D6815F00405044697
:1013100058D190F84030012B54D0012380F8403050
:10132000FFF7CAFE00284AD1636C23F4706323F0F0
:10133000010343F480736364234B9B68626C13F076
:101340001F0F236802D0B3F1A04F2ED122F48012D8
:101350006264DA68950141BF626C22F4405242F443
:1013600080526264626C12F480521CBFA26C22F044
:101370000602A264002284F840201C221A60124A4D
:101380009168C9060CD0916801F01F01052907D0AA
:10139000926802F01F02092A02D0B3F1A04F12D1C5
:1013A0009A6842F004029A6038BD42F48012626486
:1013B000064A9342D6D14FF0A042D268CAE784F8D9
:1013C000405038BD022038BD0003005000010050DD
:1013D0002DE9F0414669082E04460F461CD0374AD5
:1013E000936813F01F030CD10268D268D10712D59D
:1013F000426C42F02002426484F840300120BDE893
:10140000F081936813F4404F05D0436C43F0200300
:1014100043640023F0E70C26284B9B6813F01F0F52
:10142000236804D0B3F1A04F18BF4FF0A043DD688C
:10143000FFF7F0FD804623681A68164222D0626CDE
:1014400042F400726264DA6812F4406F13D1A804A7
:1014500011D41A6811070ED59A6812F0040F626C45
:1014600024D122F480726264626CD20403D4626C70
:1014700042F00102626415F480400CBF1E6000203F
:10148000BDE8F0817A1CD7D04FB9636C43F00403F8
:101490006364002384F840300320BDE8F081FFF747
:1014A000B9FDA0EB08008742C5D2EEE742F020026A
:1014B0006264A26C42F00102A264DCE70003005007
:1014C0000368186C70470000F0B597B000230093D4
:1014D00090F84030012B054600F051812B68CE6812
:1014E0009A680120540785F8400000F1438148685C
:1014F0000C6804284FF0060231D842431F6B1F20AE
:10150000904027EA000004FA02F202431A639A6844
:1015100012F00C0F62D1092C4FEA44028F6846D9B1
:10152000224498691E3A4FF0070E0EFA02FE20EA96
:101530000E0007FA02F202439A61DA68C2F3C10EA2
:101540004A694FEA4E0E02FA0EFE0A69013A4FEA64
:10155000846C032A73D8DFE802F037515C670928EE
:101560000BD842435F6B1E3A1F20904027EA0000D1
:1015700004FA02F202435A63C9E70E280BD8424329
:101580009F6B3C3A1F20904027EA000004FA02F2C9
:1015900002439A63BBE74243DF6B5A3A1F209040F5
:1015A00027EA000004FA02F20243DA63AFE758695F
:1015B00022444FF0070E0EFA02FE20EA0E0007FA50
:1015C00002F202435A61B8E71A6E7A4F174047EAAF
:1015D0000C0242F0004242EA0E021A669A6802F0D9
:1015E0000302012A40F0CD801A68D00740F1C9807B
:1015F0000020002385F8403017B0F0BD5A6E6D4FC3
:10160000174047EA0C0242F0004242EA0E025A66D4
:10161000E4E79A6E6748104040EA0C0242F000424C
:1016200042EA0E029A66D9E7D86E624A024042EA5E
:101630000C0242F0004242EA0E02DA66CEE71A6E6F
:1016400002F0F842624502BF1A6E22F000421A66AA
:101650005A6E02F0F842944502BF5A6E22F00042E0
:101660005A669A6E02F0F842944502BF9A6E22F0D2
:1016700000429A66DA6E02F0F8429445AED1DA6E14
:1016800022F00042D9E7D3F8B0200121A14022EA9C
:101690000102C3F8B020102C43D1474A926812F4DB
:1016A000000FA5D1B3F1A04F0CBF444A4FF0A042A8
:1016B00001929A6802F00302012A02D11A68D10746
:1016C00052D4019A3AB1916801F00301012902D183
:1016D0001268D20748D4102C32D1B3F1A04F87D171
:1016E000354A936843F400039360354B354A1B68D1
:1016F000B3FBF2F20A2353430093009B002B3FF409
:1017000077AF009B013BF7E7601C596900EB400095
:101710000722824021EA020106FA00F20A435A61D6
:10172000B9E7112C04D1244A926812F0807FB8E7FF
:10173000122C7FF45DAF204A926812F4800FB0E75C
:10174000112C09D1B3F1A04F7FF452AF1A4A93681C
:1017500043F0807393604BE7122C7FF449AF164A35
:10176000936843F48003F5E76B6C43F020036B64EC
:1017700001203EE76B6C43F020036B6439E70220E5
:101780003AE7012E7FF47FAFD3F8B020A64016438E
:10179000092CC3F8B0608E68B6D904EB440299698D
:1017A0001B3A0720904021EA000106FA02F20A43A0
:1017B0009A6170E700F0FF830003005000010050C1
:1017C0000800002040420F00F0B5034697B01C68A7
:1017D0000868B4F1A04F0CBF334A4FF0A042019209
:1017E000019A002A49D093F84050012D47D0012595
:1017F00083F84050A5686F0735D495686E0732D4DA
:101800002A4EA0B14D68D6F808E02F465D6B47EA36
:1018100045352EF460473D43B560A56805F00305E6
:10182000012D2ED12468E5072BD5002020E0B168DA
:1018300021F46041B160A16801F00301012902D1E6
:101840002168C907F1D4916801F00301012902D18F
:101850001268D207E9D415498A6822F4716222F02D
:101860000F028A60E1E75A6C42F020025A640120BC
:10187000002283F8402017B0F0BD0120FBE70220D2
:10188000F9E7946804F00304012C02D11268D4072C
:10189000CBD4064C8968A26822F47162084322F016
:1018A0000F021043A060C0E7000100500003005089
:1018B000074AD36823F4E0631B041B0C43F0BF63A7
:1018C000000243F4003300F4E0600343D360704748
:1018D00000ED00E0174B30B5DC68C4F30224C4F11E
:1018E0000703251D042B28BF0423062D4FF00105F7
:1018F00005FA03F303F1FF338CBF033C00241940C6
:10190000A14005FA04F4013C2240002842EA010209
:101910004FEA0212AFBF00F1604000F00F00064B2B
:10192000D2B2A5BF00F56140D2B21A5480F80023AC
:1019300030BD00BF00ED00E014ED00E042090123DE
:1019400000F01F0003FA00F0014B43F8220070473B
:1019500000E100E00138B0F1807F0AD2064B074A6F
:101960005860F02182F823100020072298601A6046
:1019700070470120704700BF10E000E000ED00E07C
:1019800090F82120022A10B503D00422826301209E
:1019900010BD0268C46B1168436B21F00E01116029
:1019A000116821F001011160026C012101FA02F2BB
:1019B0006260002480F8211080F8204013B198471D
:1019C000204610BD184610BD2DE9F04F85B00B68BC
:1019D000DFF86481564A01934FF00F090023019C00
:1019E000DC4002D105B0BDE8F08F012404FA03FA0F
:1019F000019C14EA0A0500F093804C6824F0100B57
:101A0000BBF1020F11D1DF0800EB870703F0070ECF
:101A10003E6A4FEA8E0E09FA0EFC26EA0C0C0E699D
:101A200006FA0EF646EA0C063E624FEA430C03271E
:101A3000066807FA0CF7FF4304F0030E3E400EFA67
:101A40000CFE0BF1FF3B4EEA0606BBF1010F0660F0
:101A500011D8866806EA070BCE6806FA0CFE4EEA35
:101A60000B068660466826EA0A0AC4F300169E4002
:101A700046EA0A064660C66837408E6806FA0CF6E3
:101A80003743E600C7604BD5D8F8186046F001062A
:101A9000C8F81860D8F8186023F0030707F18047EA
:101AA00006F0010607F58037039603F0030E039E48
:101AB000BE684FEA8E0E09FA0EFCB0F1904F26EA8E
:101AC0000C0C2FD01B4EB0422ED006F58066B042D3
:101AD0002CD006F58066B04214BF0526032606FA10
:101AE0000EF646EA0C06BE601668EF4314F4803F1B
:101AF0000CBF3E402E431660566814F4003F0CBFE6
:101B00003E402E435660966814F4801F0CBF3E4042
:101B10002E439660D668A40254BF3E402E43D66042
:101B200001335CE70026DAE70126D8E70226D6E78C
:101B30000004014000040048001002400AB1816125
:101B400070478162704703689A69910744BF002219
:101B50009A629A69D2075EBF9A6942F001029A615D
:101B6000704730B5039C05682343640D04F480641A
:101B700044F07F7444F458346868C1F3090144F4B4
:101B80007F74194344F0030441EA024120EA04044B
:101B90002143696030BD2DE9F041069F0446884627
:101BA00016461D462268936938EA03030CBF0123D9
:101BB0000023B34202D00020BDE8F0816B1CF2D0BC
:101BC00055B9202384F84130002384F8423084F84A
:101BD00040300320BDE8F081FFF71CFAC01B8542AE
:101BE000E0D2EEE7036870B50446986910F0100083
:101BF0000D46164612D170BD691C10D04DB9202378
:101C000084F84130002384F8423084F840300320C7
:101C100070BDFFF7FFF9801B8542F0D323689969F7
:101C20008A06E9D510222025DA612046DD61FFF71A
:101C30008AFF2268536823F0FF7323F48B3323F465
:101C4000FF7323F00103536004236364002384F8CB
:101C5000415084F8403084F84230012070BD70B5A6
:101C600004460D46164623689B699B0701D5002054
:101C700070BD324629462046FFF7B4FFB0B96A1C52
:101C8000F1D06DB9636C43F020036364202384F8C2
:101C90004130002384F8423084F84030032070BD86
:101CA000FFF7B8F9801B8542DDD2EBE7012070BD5C
:101CB000F7B5099E1F46184B0093044615464FF092
:101CC0008073FAB2FFF74DFF324608992046FFF7BE
:101CD000C6FF28B1636C042B10D1012003B0F0BD06
:101CE000012F23680CD1EDB29D62089B0096002263
:101CF00080212046FFF74FFF0028EFD00320EDE7BB
:101D00002A0A9A62089932462046FFF7A8FF00285F
:101D1000E0D12368E7E700BF00200080F7B5099E07
:101D20001F46174B0093044615460023FAB2FFF7EF
:101D300018FF324608992046FFF791FF28B1636CDF
:101D4000042B10D1012003B0F0BD012F23680CD16A
:101D5000EDB29D62089B0096002240212046FFF7CD
:101D60001AFF0028EFD00320EDE72A0A9A620899AB
:101D700032462046FFF773FF0028E0D12368E7E7EB
:101D80000020008070B504460D46164623689B6906
:101D90009B0601D5002070BD324629462046FFF73C
:101DA00021FFA0B96DB9636C43F020036364202365
:101DB00084F84130002384F8423084F84030032016
:101DC00070BDFFF727F9801B8542DFD2EBE70120CA
:101DD00070BD10B5044600284AD090F8413003F099
:101DE000FF021BB980F8402003F0D4FA242384F8C2
:101DF00041302368E1681A6822F001021A606268C3
:101E000022F070621A619A68012922F400429A60F5
:101E1000A26824D142F400429A605A68616942F093
:101E2000007242F400425A60DA6822F40042DA603A
:101E300022690A43A16942EA0122DA60216AE26961
:101E40000A431A601A6842F001021A600020202337
:101E5000606484F84130206384F8420010BD42F48D
:101E6000044202299A6004BF4FF400625A60D4E72A
:101E7000012010BD2DE9F04F9B4690F8413085B010
:101E8000202B04460F460392BDF83CA0DDF840909D
:101E900040F0A6800E9B1BB9012005B0BDE8F08F75
:101EA000BAF1000FF8D090F84030012B00F0988084
:101EB000012580F84050FFF7ADF819230090064641
:101EC0002A464FF400412046FFF765FE8046D0B910
:101ED000212384F84130402384F842300E9B606413
:101EE00063626063A4F82AA00196CDF800905B4677
:101EF000039A39462046FFF7DBFE30B1636C84F865
:101F00004080042BC8D00320C7E7638D9BB2FF2B12
:101F100010D9FF22228500904FF080733946204669
:101F2000FFF71FFE324649462046FFF798FE48B1AC
:101F3000636CE6E7628D009092B222854FF00073E9
:101F4000D2B2EBE7636A2268591C61621B78936224
:101F5000638D228D013B013A9BB292B2638522854B
:101F6000BAB9638D9BB2A3B100964B46802120463F
:101F7000FFF711FE0028C6D1638D9BB2FF2B27D936
:101F8000FF22228500904FF0807339462046FFF7EC
:101F9000E8FD638D9BB2002BC4D1324649462046F2
:101FA000FFF7F0FE0028C3D123682021D9615A68C9
:101FB00022F0FF7222F48B3222F4FF7222F001022F
:101FC0005A6084F8411084F8400084F8420064E7C5
:101FD000628D009092B222854FF00073D2B2D4E7A6
:101FE00002205AE72DE9F04F9B4690F8413085B02A
:101FF000202B04460F460392BDF83CA0DDF840902C
:1020000040F0A9800E9B1BB9012005B0BDE8F08F00
:10201000BAF1000FF8D090F84030012B00F09B800F
:10202000012580F84050FEF7F5FF19230090064681
:102030002A464FF400412046FFF7ADFD8046D0B957
:10204000222384F84130402384F842300E9B6064A0
:1020500063626063A4F82AA00196CDF800905B4605
:10206000039A39462046FFF759FE30B1636C84F875
:102070004080042BC8D00320C7E7638D9BB2FF2BA1
:10208000364B44D9FF22009322854FF080733946A6
:102090002046FFF766FD00964B46002204212046AD
:1020A000FFF779FD0028E6D1636A5A1C6262226854
:1020B000526A1A70228D638D013A013B92B29BB233
:1020C00022856385BAB9638D9BB2A3B100964B4656
:1020D00080212046FFF75FFD0028CCD1638D9BB2A5
:1020E000FF2B1CD9FF22228500904FF080733946C8
:1020F0002046FFF736FD638D9BB2002BCBD13246D5
:1021000049462046FFF73EFE88B1636CB1E7628D19
:10211000009392B222854FF00073D2B2B7E7628D7E
:10212000009092B222854FF00073D2B2DFE72368AD
:102130002021D9615A6822F0FF7222F48B3222F4F6
:10214000FF7222F001025A6084F8411084F84000C6
:1021500084F8420059E7022057E700BF00240080BE
:1021600090F84120D2B2202A10B51DD190F840300D
:10217000012B19D0242380F8413003681C6824F017
:1021800001041C601C6824F480541C601C682143FA
:102190001960196841F001011960002380F841209D
:1021A00080F84030184610BD022010BD10B590F8E0
:1021B0004140E4B2202C1CD190F84030012B18D0C3
:1021C000242380F8413003681A6822F001021A6063
:1021D0001A6822F4706242EA012119601A6842F01A
:1021E00001021A60002380F8414080F84030184610
:1021F00010BD022010BD00002DE9F347054618B9B7
:10220000012002B0BDE8F0870368DA0711D42B681B
:102210009B0700F185802B681C0700F1F6802B6876
:10222000580700F13F81EA69002A40F0D68100207A
:10223000E7E7BA4C636803F00C03042B07D063682C
:1022400003F00C03082B16D16368DF0313D54FF49A
:10225000003393FAA3F2216893FAA3F3B3FA83F35A
:1022600003F01F03012202FA03F30B42CFD06B6885
:10227000002BCCD1C4E76A68B2F5803F25D1236832
:1022800043F480332360E36AA96823F00F030B4310
:10229000E36252B3FEF7BEFE4FF4003680460127DC
:1022A00096FAA6F3226896FAA6F3B3FA83F303F03C
:1022B0001F0307FA03F31342A9D1FEF7ABFEA0EB0D
:1022C00008006428ECD903209BE7236832B923F483
:1022D00080332360236823F48023D3E7B2F5A02F53
:1022E000F5D143F480232360C9E7FEF793FE4FF452
:1022F00000368046012796FAA6F3226896FAA6F3DE
:10230000B3FA83F303F01F0307FA03F313423FF416
:102310007EAFFEF77FFEA0EB08006428EBD9D2E782
:102320007E4C636813F00C0F07D0636803F00C0356
:10233000082B22D16368DE031FD4022393FAA3F291
:10234000216893FAA3F3B3FA83F303F01F03012286
:1023500002FA03F30B4203D02B6993427FF450AF90
:102360002168F82393FAA3F3B3FA83F26B699340DD
:1023700021F0F802134323604DE72A6901260AB3CE
:1023800096FAA6F3B3FA83F303F1845303F58413A7
:102390009B0002271E60FEF73DFE804697FAA7F3DA
:1023A000226897FAA7F3B3FA83F303F01F0306FA40
:1023B00003F31342D4D1FEF72DFEA0EB0800022850
:1023C000ECD980E796FAA6F3B3FA83F303F18453CA
:1023D00003F584139B0002271A60FEF71BFE80465C
:1023E00097FAA7F3226897FAA7F3B3FA83F303F0F7
:1023F0001F0306FA03F313423FF40DAFFEF70AFE84
:10240000A0EB08000228EBD95DE7AA69434E4449D6
:1024100001241AB394FAA4F3B3FA83F30B449B0098
:1024200002271C60FEF7F6FD804697FAA7F397FA9D
:10243000A7F397FAA7F3726A97FAA7F3B3FA83F3AD
:1024400003F01F0304FA03F313427FF4E8AEFEF730
:10245000E1FDA0EB08000228E7D934E794FAA4F3E1
:10246000B3FA83F30B449B0002271A60FEF7D2FDF8
:10247000804697FAA7F397FAA7F397FAA7F3726A39
:1024800097FAA7F3B3FA83F303F01F0304FA03F3F5
:1024900013423FF4C4AEFEF7BDFDA0EB08000228D6
:1024A000E7D910E71D4CE369D90034D4E36943F060
:1024B0008053E361E36903F080530193019B01269C
:1024C000184F3B68DA052FD5EB68012B3DD1236A05
:1024D00043F001032362FEF79DFD02278246B946C1
:1024E0004FF0010897FAA7F397FAA7F3002B6CD0E7
:1024F000226A99FAA9F3B3FA83F303F01F0308FAE7
:1025000003F3134258D0002E3FF48DAEE36923F05D
:102510008053E36187E60026D2E700BF0010024047
:1025200020819010007000403B6843F480733B6052
:10253000FEF770FD80463B68DB05C5D4FEF76AFDFB
:10254000A0EB08006428F6D9BDE63BBB236A23F064
:1025500001032362236A23F004032362FEF75AFD7A
:1025600002278246B9464FF0010897FAA7F397FA77
:10257000A7F373B3226A99FAA9F3B3FA83F303F0CA
:102580001F0308FA03F31342BDD0FEF743FD41F2E7
:102590008833A0EB0A009842E7D994E6052B236A1A
:1025A00003D143F00403236291E723F00103236284
:1025B000236A23F004038DE7FEF72CFD41F28833F4
:1025C000A0EB0A0098428DD97DE697FAA7F3626ADC
:1025D0008FE797FAA7F3626ACDE7414C636803F08F
:1025E0000C03082B3FF40CAE022A4FF0807352D13B
:1025F00093FAA3F3B3FA83F303F1845303F584133B
:102600009B0000221A60FEF705FD4FF00077804620
:10261000012697FAA7F3226897FAA7F3B3FA83F390
:1026200003F01F0306FA03F313422DD162686B6AAD
:10263000296A22F474120B43134363604FF08073D2
:1026400093FAA3F3B3FA83F303F1845303F58413EA
:102650009B004FF000751E60FEF7DCFC012607466C
:1026600095FAA5F3226895FAA5F3B3FA83F303F07C
:102670001F0306FA03F313427FF4D9ADFEF7CAFC39
:10268000C01B0228ECD91EE6FEF7C4FCA0EB080034
:102690000228BED917E693FAA3F3B3FA83F303F142
:1026A000845303F584139B0000221A60FEF7B2FCEA
:1026B0004FF000750746012695FAA5F3226895FAB2
:1026C000A5F3B3FA83F303F01F0306FA03F31342EF
:1026D0003FF4ADADFEF79EFCC01B0228ECD9F2E53D
:1026E0000010024010B5134C616801F00C03082B78
:1026F0001ED14FF4701393FAA3F301F47012B3FADE
:1027000083F322FA03F30C4AD05CE36A0F2292FAB5
:10271000A2F2B2FA82F203F00F03D340074AD25C6E
:10272000CB034ABF064B074BB3FBF2F3584310BD34
:10273000034810BD00100240489B0008589B000849
:1027400000127A0000093D002DE9F0410D460446D3
:1027500010B90120BDE8F0814C4A136803F007036B
:102760008B422ED32268910736D4D2073CD4474AF5
:10277000136803F007039D4275D32268444D12F09D
:10278000040F7CD1130706D56B68226923F46053CC
:1027900043EAC2036B60FFF7A5FF6B68F02292FA71
:1027A000A2F2B2FA82F203F0F003D340394AD35CCA
:1027B000D840394B18600020FEF7EAFB0020BDE846
:1027C000F081136823F007030B431360136803F0D1
:1027D00007039942BDD1C5E72D49A0684B6823F096
:1027E000F00303434B60C0E76268294E012A27D1FA
:1027F0004FF4003393FAA3F1316893FAA3F3B3FAD9
:1028000083F303F01F0302FA03F30B42A1D07368B2
:1028100023F003031A437260FEF7FCFB41F2883891
:1028200007467368626803F00C03B3EB820F9ED017
:10283000FEF7F0FBC01B4045F3D90320BDE8F08153
:10284000022A0CBF4FF00073022393FAA3F1306801
:1028500093FAA3F3B3FA83F303F01F03012101FA00
:1028600003F30342D2E7136823F007032B431360FB
:10287000136803F007039D427FF46BAF7DE76B683D
:10288000E16823F4E0630B436B607BE700200240C8
:1028900000100240E39B000808000020084B4FF4A2
:1028A000E0625B6892FAA2F2B2FA82F203F4E063A9
:1028B000D340044AD35C044A1068D840704700BF34
:1028C00000100240F39B000808000020084B4FF462
:1028D00060525B6892FAA2F2B2FA82F203F4605399
:1028E000D340044AD35C044A1068D840704700BF04
:1028F00000100240F39B00080800002003682DE947
:10290000F347DC03054620D5554CE369D8004DD488
:10291000E36943F08053E361E36903F0805301937B
:10292000019B01264F4F3B68D90541D5236A13F41B
:10293000407351D1236A6A6823F4407313432362BE
:102940001EB1E36923F08053E3612868C40706D50C
:10295000434AA968136B23F003030B4313638106F7
:1029600006D53F4AE968136B23F010030B4313634A
:10297000020606D53A4A2969D36A23F4F8730B4351
:10298000D362C30406D5364A6969136B23F4807396
:102990000B43136310F480401BD0314AA969136BB9
:1029A00023F480530B431363002012E00026B9E7A1
:1029B0003B6843F480733B60FEF72CFB80463B682A
:1029C000DA05B3D4FEF726FBA0EB08006428F6D99D
:1029D000032002B0BDE8F0876A6802F440729342B7
:1029E000A8D0216A4FF4803321F4407093FAA3F207
:1029F000DFF874E0B2FA82F27244920001271760A5
:102A000093FAA3F3B3FA83F373449B0000221A6092
:102A1000CB0720628ED5FEF7FDFA4FF00208824602
:102A2000C14698FAA8F398FAA8F3A3B1226A99FAD2
:102A3000A9F3B3FA83F303F01F0307FA03F3134276
:102A40007FF478AFFEF7E6FA41F28833A0EB0A0094
:102A50009842E6D9BCE798FAA8F3626AE7E700BFB4
:102A600000100240007000400081901070477047D5
:102A700070477047704703681A69910710B504469C
:102A80000FD5DA6892070CD56FF002021A619B69C4
:102A900001229907027700F08580FFF7E9FF002304
:102AA000237723681A69520710D5DA6850070DD5C5
:102AB0006FF004021A619B69022213F4407F2277AF
:102AC000204675D0FFF7D4FF0023237723681A69C7
:102AD00011070FD5DA6812070CD56FF008021A61DA
:102AE000DB6904229B072277204667D0FFF7C0FFEF
:102AF0000023237723681A69D00610D5DA68D10637
:102B00000DD56FF010021A61DB69082213F4407FC3
:102B10002277204658D0FFF7ABFF002323772368A6
:102B20001A69D20708D5DA68D00705D56FF0010217
:102B30001A612046FFF79AFF23681A69110608D523
:102B4000DA68120605D56FF080021A61204600F09F
:102B50008AF923681A69D00508D5DA68110605D5FF
:102B60006FF480721A61204600F07EF923681A69BA
:102B7000520608D5DA68500605D56FF040021A6192
:102B80002046FFF777FF23681A69910622D5DA6895
:102B900092061FD56FF0200220461A61BDE8104052
:102BA00000F060B9FFF763FF2046FFF762FF76E7AA
:102BB000FFF75DFF2046FFF75CFF85E7FFF757FF54
:102BC0002046FFF756FF93E7FFF751FF2046FFF738
:102BD00050FFA2E710BD0000214A0368904210B5E3
:102BE00005D0B0F1804F02D01E4CA0420CD14C68F1
:102BF00023F07003904243EA040310D0B0F1804FF9
:102C00000DD0184A90420AD0174A904207D002F5D8
:102C10008062904203D002F58062904203D1CA687C
:102C200023F4407313434A6923F080031343036082
:102C30008B68C3620B688362094B98420BD003F523
:102C4000A053984207D003F58063984203D003F560
:102C50008063984201D10B6903630123436110BD76
:102C6000002C0140000400400040014010B5044623
:102C7000A0B190F83D3003F0FF021BB980F83C2072
:102C800002F0BEFB022384F83D302068211DFFF7CF
:102C9000A3FF012384F83D30002010BD012010BDAA
:102CA00010B584680A4324F47F4442EA0323234393
:102CB000836010BD90F83C30012B70B504464FF096
:102CC00002001AD084F83D002068012384F83C30CB
:102CD0008268524B134083600B68402B75D018D824
:102CE000102B00F08F8009D8002B00F08580012385
:102CF000002084F83D3084F83C0070BD202B00F0AB
:102D00008780302BF3D1836823F0700343F03703BF
:102D100033E0702B33D01BD8502B3FD0602BE6D143
:102D20004D68CE68016A21F0100101628269036A70
:102D300022F4704223F0A00343EA051342EA06326C
:102D400082610362836823F0700343F0670314E039
:102D5000B3F5805F0CD0B3F5005FC8D1CB684A688B
:102D60008968FFF79DFF2268936843F4804313E06E
:102D7000836823F4803323F007038360B7E7CB68CD
:102D80004A688968FFF78CFF2268936823F48033D0
:102D900023F0770343F077039360A8E74A68CE688F
:102DA000016A056A25F001050562836921F00A01BF
:102DB00023F0F00343EA06130A4383610262836847
:102DC00023F0700343F05703D7E74A68CE68016ADF
:102DD000056A25F001050562836921F00A0123F0E7
:102DE000F00343EA06130A4383610262836823F017
:102DF000700343F04703C0E7836823F0700343F098
:102E00000703BAE7836823F0700343F01703B4E7BE
:102E1000836823F0700343F02703AEE78800FEFFCA
:102E200090F83C30012B30B518D002680C4D536837
:102E30009468AA4202BF4D6823F470032B430D68C7
:102E4000896823F070032B4324F0800453602143EE
:102E50000023916080F83C30184630BD022030BD20
:102E6000002C014070477047704703681A6822F4CD
:102E700090721A609A6822F001029A60202380F80A
:102E80006A30704790F86A30202B3DD1002939D044
:102E9000002A37D090F86830012B35D0012380F814
:102EA000683083684165B3F5805FA0F85820A0F8CA
:102EB0005A2019D10369ABB940F2FF13A0F85C3076
:102EC00000232222C36680F86A20026880F86830F6
:102ED000916841F001019160116841F490711160B5
:102EE00018467047FF23E9E723B90369002BF9D09F
:102EF0007F23E3E7B3F1805FE2D10369002BF7D0D2
:102F00003F23DBE70120704702207047704770477E
:102F1000704708B5406A0023A0F85A30A0F8523034
:102F2000FFF7F6FF08BD000038B5044605682169C3
:102F3000A368C26928680B4361690B43494913437D
:102F400001400B432B606B68E168206A23F4405317
:102F50000B436B60A968A36921F4306103430B4301
:102F6000AB60414B9D4212D103F558433F491B6B67
:102F700003F00303B2F5004FCB5C3BD1082B36D8EE
:102F8000DFE803F00F2124352D3535353000384B7F
:102F90009D4203D003F580639D425ED1B2F5004FA0
:102FA00031D1FFF77BFC61684A0802EB4003B3FBB9
:102FB000F1F39BB2002023F00F022168C3F3420318
:102FC0001343CB6038BDFFF781FCECE76068430832
:102FD00003F5740303F51053B3FBF0F3E9E7FFF7D0
:102FE00081FBE0E76068430803F58033F4E70120E4
:102FF0000023E0E7082B33D8DFE803F005101B328D
:10300000273232322A00FFF749FC636800EB530095
:10301000B0FBF3F080B2E860002038BDFFF756FC4B
:10302000636800EB5300B0FBF3F00F4B80B2D86045
:10303000F2E76268530803F5F40303F59053B3FB1A
:10304000F2F3094A9BB2D360E6E7FFF74BFBE7E7F1
:103050006268530803F50043F1E7B2F5004FC6D0AC
:10306000012038BDF369FFEF00380140689B00087C
:1030700000440040436ADA0710B506D50168846A47
:103080004A6822F4003222434A609C0706D5016850
:10309000C46A4A6822F4803222434A60590706D53E
:1030A0000168046B4A6822F4802222434A601A07AE
:1030B00006D50168446B4A6822F4004222434A6004
:1030C000DC0606D50168846B8A6822F480522243AC
:1030D0008A60990606D50168C46B8A6822F400529A
:1030E00022438A605A060FD50168046C4A6822F4AC
:1030F00080122243B4F5801F4A6005D14A68446CAF
:1031000022F4C00222434A601B0606D50268816C85
:10311000536823F400230B43536010BD2DE9F041A5
:10312000069D04460F46164698462168CA6937EA46
:1031300002030CBF01220022B24202D00020BDE8EF
:10314000F0816B1CF2D09DB923681A6822F4D0720A
:103150001A609A6822F001029A60202384F869308C
:1031600084F86A30002384F868300320BDE8F081D9
:10317000FDF750FFA0EB08008542D6D2E4E72DE929
:10318000F3411F4690F86930202B04460D469046C7
:103190004CD1002948D0002A46D090F86830012B45
:1031A00044D0012380F868300023C366212380F8CF
:1031B0006930FDF72FFFA4F850800646A4F852802E
:1031C000B4F8522092B262B90097334640212046AB
:1031D000FFF7A4FF98B9202384F8693084F86800C9
:1031E0000EE0B4F852300097013B9BB2A4F8523085
:1031F0000022334680212046FFF790FF18B10320BC
:1032000002B0BDE8F081A3682268B3F5805F07D102
:1032100023692BB935F8023BC3F308031385CFE7C5
:103220002B7813850135CBE70120E9E70220E7E79A
:1032300073B504460026C666FDF7ECFE23681B68DE
:103240001A07054617D423681B685B070AD56FF079
:103250007E43009300222B464FF480012046FFF767
:103260005DFFA0B92023002084F8693084F868004D
:1032700084F86A300CE06FF07E43009332460346D8
:103280004FF400112046FFF749FF0028DBD0032050
:1032900002B070BD10B5044660B390F8693003F019
:1032A000FF021BB980F8682002F0DEF822682423B0
:1032B00084F86930136823F0010313602046FFF798
:1032C00033FE012816D0636A13B12046FFF7D2FE01
:1032D00023685A6822F490425A609A6822F02A02BF
:1032E0009A601A6842F0010220461A60BDE8104058
:1032F000FFF79EBF012010BD90F86930212B27D128
:10330000B0F8523002689BB24BB9116821F08001CD
:103310001160116841F0400111600020704783681E
:10332000B3F5805FC36C0ED1016961B933F8021B3C
:10333000C1F308011185C364B0F85230013B9BB260
:10334000A0F85230E9E7591CC1641B781385F3E7F4
:1033500002207047016808B50B6823F040030B603A
:10336000202380F86930FFF7D1FD002008BD90F8D8
:103370006A30222B10B5036829D1998C8368B0F884
:103380005C20B3F5805F02EA0102436D1BD1016945
:10339000C9B923F8022B4365B0F85A40013CA4B2E6
:1033A000A0F85A406CB903681A6822F490721A6047
:1033B0009A6822F001029A60202380F86A30FFF7B1
:1033C000A6FD002010BD591C41651A70E4E79A69FA
:1033D00042F008029A61022010BD00000268D36921
:1033E000116870B513F00F05044607D19E0605D588
:1033F0008E0603D5BDE87040FFF7B9BF9068002D79
:103400005CD010F0010502D111F4907F56D0D8079E
:1034100007D5CE0505D501201062E06E40F0010011
:10342000E066980706D52DB102201062E06E40F0EC
:103430000400E0665E0706D52DB104201062E06E40
:1034400040F00200E066180707D58E0600D425B1CB
:1034500008201062E26E0243E266E26E002A50D05B
:10346000980604D58A0602D52046FFF780FFE36E52
:103470001B07204604D423689D6815F0400519D029
:10348000FFF7F3FC23689A6856060FD59A68606EBA
:1034900022F040029A6048B11A4B4363FEF770FA7B
:1034A00078B3606EBDE87040436B18472046FFF765
:1034B0002FFD70BDFFF72CFDE56670BDDD020ED55A
:1034C00046020CD54FF480131362202384F8693030
:1034D000204684F86A30BDE8704000F015B81D063B
:1034E00006D5080604D52046BDE87040FFF704BFA6
:1034F0005A0606D54B0604D52046BDE87040FFF7B6
:1035000029BF70BD132F0008704748B143683BB115
:1035100083682BB1C068B0FA80F040094042704720
:103520004FF0FF30704770B5054618461C46FFF750
:10353000ECFF70B9A37866686078012B18BF45F07E
:10354000800513460A462946B047002818BF6FF089
:10355000030070BDF0B50A2A28BF0A2287B00546CD
:1035600018461E461446FFF7D0FF002836D1002D1E
:1035700034D0002932D0002A33D00B788DF80430B3
:10358000B378012B0DD1012C01AA16D12346B468C2
:1035900029787078A047002818BF6FF0030007B0A3
:1035A000F0BD013A6B1E55FA82F2587800F07F00A8
:1035B00003F8010F9342F8D1E5E7012302EB430042
:1035C000EF5C00F8017CC85C02F813000133D8B24C
:1035D000A042F3D36400013CA3B2D8E74FF0FF3020
:1035E000DDE76FF00200DAE713B50C4602A9F2231B
:1035F00000F007008DF8073001F8030D2346012283
:103600000DF10700FFF7A6FF88B9F4202346012239
:103610000DF106018DF80700FFF785FF38B9234645
:1036200001220DF106010DF10700FFF793FF02B033
:1036300010BD73B5134606460D461446F42001220C
:103640000DF107018DF80600FFF76DFFF8B9F207DD
:103650000AD52B789DF807209B0003F01C0322F06D
:103660001C0213438DF80730B30708D59DF80730C7
:103670006A7803F01F0343EA42138DF807302346AC
:1036800001220DF107010DF10600FFF763FF02B003
:1036900070BD73B5134606460D461446F52001224B
:1036A0000DF107018DF80600FFF73DFFF8B932076D
:1036B0000AD5EB789DF807209B0003F01C0322F04D
:1036C0001C0213438DF80730F30608D59DF8073028
:1036D0002A7903F01F0343EA42138DF8073023468B
:1036E00001220DF107010DF10600FFF733FF02B0D3
:1036F00070BD10B504460846FFF707FF48B90B46F2
:1037000001222146F420FFF70EFF237803F0030384
:10371000237010BD37B5E0238DF80630B62305467B
:103720008DF80730FFF7F1FE044658B92B46012209
:103730000DF107010DF10600FFF70CFFEB680446E1
:1037400002209847204603B030BD30B589B0002331
:1037500004468DF80330FFF7D8FE002840F0A18022
:103760000525234601220DF10301D020FFF7DBFEE2
:10377000002840F098809DF80330602B40F0938043
:1037800023702046FFF7C6FF002840F08A800146DC
:103790001A2201A801F0C9FF23461A2201A9882094
:1037A000FFF7C1FE00287CD19DF805209DF804306C
:1037B00043EA022323829DF807209DF8063043EA5E
:1037C000022363829DF809209DF8083043EA022312
:1037D000A3829DF80B209DF80A3043EA0223E3827E
:1037E0009DF80D209DF80C3043EA022323839DF8B9
:1037F0000F209DF80E3043EA022363839DF81120C9
:103800009DF8103043EA0223A3839DF813209DF80E
:10381000123043EA0223E3839DF815209DF814300B
:1038200043EA022323849DF817209DF8163043EACB
:10383000022363849DF819209DF8183043EA02237F
:10384000A3849DF81B209DF81A3043EA0223E384E9
:103850009DF81D3084F828300722234601A9E12075
:10386000FFF761FEE8B99DF805209DF804309DF949
:10387000071043EA022363859DF8063084F82C3054
:103880009DF8083003F00F0242EA0112E2859DF92B
:1038900009201B0943EA021323869DF80A3084F8A5
:1038A000323009B030BDE3680120013D984715F082
:1038B000FF057FF456AF6FF00100F2E71FB5042259
:1038C000044603460DEB0201F220FFF72CFE58BB25
:1038D0009DF8043003F007038DF80A309DF8063098
:1038E000C3F382025B098DF809309DF807308DF82B
:1038F00008202046C3F382025B098DF80B208DF867
:103900000C30FFF707FF78B921469DF80A00FFF752
:103910006BFE224602A91F20FFF78BFE20B922462C
:1039200002A91F20FFF7B5FE04B010BD73B506460F
:1039300008460C46FFF7E9FD054668B90DF107009A
:10394000FFF7D7FE054638B99DF807303BB9710738
:103950001CD116F0180F1DD1284602B070BD2046AC
:10396000FFF7ACFF0028F2D00546F5E7214694F8B2
:103970003A00FFF739FEB20705D0224604F13801BC
:103980003046FFF756FE0028EED1E2E77307EDD48C
:103990000120F0E7224604F138013046FFF779FEB6
:1039A000E2E737B5054608460C46FFF7AEFD40BBDB
:1039B0000DF10500FFF79DFE18BB9DF80530DBB942
:1039C000F420234601220DF107018DF80600FFF7D0
:1039D000AAFDB0B99DF8070005F0030520F003002B
:1039E00028438DF80700234601220DF107010DF150
:1039F0000600FFF7AFFD04E02046FFF75FFF002859
:103A0000DED003B030BD437802781B0143EA0233B5
:103A1000827843EA12130B600379C2781B0143EAF0
:103A20000233427943EA12134B608279C37943EA45
:103A300002238B6070470000F0B5002900F0F2808F
:103A4000002A00F0EF80002B00F0EC8000244507F6
:103A500054601460946029D01D884F686C00C4EBDA
:103A6000D706B3F90240C5EB171574436D43B3F99C
:103A700004602D1375434FF4006694FBF6F44FF485
:103A8000804695FBF6F52C445C6204EB84044FF40D
:103A90008075803494FBF5F442F23415AC42A8BF33
:103AA0002C46624DAC42ACBF54605560C4076ED525
:103AB0004FF0020CB3F90AE05F6A97FBFCF70426AB
:103AC000A7F57A4797FBF6F56D436C1304FB0EF4EC
:103AD0004FF0080E94FBFEF4B3F908E007FB0EFE6E
:103AE0009EFBFCFE74444FF4802E94FBFEF4B3F86E
:103AF00006E004F500440EFB04F45FEAE43E00F047
:103B00008E80B3F90EC0B3F9104007FB0CF77F00AD
:103B1000ED1204FB05750C6895FBF6F5B3F90C6026
:103B2000C4F5801405EB06454FF4805695FBF6F579
:103B3000641B40F63545654353BF6D00B5FBFEF58C
:103B40006D00B5FBFEF5EC086443660BB3F9164057
:103B500074434FF4805694FBF6F4B3F91460AF0845
:103B60007E434FF4005796FBF7F63444B3F91260E6
:103B70003444102694FBF6F42C442D4DAC4228BF5F
:103B80002C4647F23055AC4238BF2C46146010F03A
:103B9000040049D08C68B3F91E10586A0905C1EBBE
:103BA0008434B3F92010A0F5963000FB11414FF496
:103BB000004501F5804191FBF5F4197F4FF4006653
:103BC000414391FBF6F14E1993F9221041434FF412
:103BD000806091FBF0F1714391FBF0F1B3F91A00B1
:103BE0001B7E01F50011414301F500514FF4804067
:103BF00091FBF0F1614391FBF5F04043C011584354
:103C0000102390FBF3F0091A21EAE171B1F1C85FCA
:103C1000A8BF4FF0C851091391600020F0BD47F2D2
:103C20003054B3E74FF0FF30F0BD00BF60F0FFFF4E
:103C3000B0AD010070B586B00023064610460D46B3
:103C4000144601930293039304930593FFF75DFCDD
:103C5000A0B999B1134601A90822F720FFF763FC28
:103C600050B903A901A8FFF7CEFE04F110032A46BC
:103C700003A93046FFF7E0FE06B070BD4FF0FF30FD
:103C8000FAE7FDF7CDB900001FB542F210748DE8D8
:103C90001C0001230A4600FA03F10348FEF7A2F9CB
:103CA000002004B010BD00BF640800201FB54FF411
:103CB0007A748DE81C0041F0800201233121FEF767
:103CC00091F9002004B010BD1FB542F210748DE8C8
:103CD0001C0001230A4600FA03F10348FEF7CAF864
:103CE000002004B010BD00BF640800201FB54FF4D1
:103CF0007A748DE81C0041F0800201233121FEF727
:103D0000B9F8002004B010BD84B030B595B018AC3F
:103D100084E80F00294B2A4D00221A70294A137893
:103D20000133DBB21370284B14781868FCF70CFCD5
:103D3000CDE91201254B1B781093254B1868FCF731
:103D400003FCCDE90E01234B1868FCF7FDFBCDE920
:103D50000C01214B1868FCF7F7FBCDE90A011F4B5A
:103D60001F4A1B6808931F4B1B6807931E4B1B6859
:103D700006931E4B1B6805931D4B1B6804931D4B3C
:103D80001B6803931C4B1B7802931C4B1B780193FD
:103D90001B4BE4B21B7800935C212346284601F0BC
:103DA000CDFC4FF6FF735B22294618A8FFF7E7F911
:103DB00015B0BDE8304004B0704700BF410C002092
:103DC00059070020300B0020D4070020BD0600203A
:103DD000B00600205007002030070020AC0600206D
:103DE000929B0008A8060020A4060020C00700201F
:103DF000CC060020C8070020C40700205807002078
:103E0000CA060020000000001B4BDFED1C7A93ED7A
:103E1000007AB4EEE77AF1EE10FAD0B5184C1FDD57
:103E2000184B1868FCF790FB0FA3D3E90023064654
:103E30000F46FCF74FFE38B90DA3D3E900233046F7
:103E40003946FCF765FE58B1237801332370237897
:103E5000052B04D10C4A012313700C4A1370D0BDFA
:103E60000023F3E7AFF30080B4AD669DF1F9314074
:103E7000ACADD85F76EF3240B006002000401C4663
:103E8000BB06002050070020680A00203C070020E5
:103E900038B5144D2B780B2B0CD101224FF48071C7
:103EA0004FF09040FDF74AFE012220214FF0904054
:103EB000FDF744FE2C78013CE4B22C708CB922460C
:103EC0004FF480714FF09040FDF738FE22462021DC
:103ED0004FF09040FDF732FE034B1C70034B012264
:103EE0001A7038BD0C000020680A00203C07002032
:103EF0000449013810F8012F02B970470B7853407C
:103F00000B70F7E7BC0600202DE9F04FB84ADFF848
:103F100028B3DFF82893B74DB74EDFF82483B74FA7
:103F2000DFF820A3B649002313700022CBF800204D
:103F3000C9F800202A60B34A88F8003085B01370B1
:103F4000304606223B60CAF8003001F039FCCDF85B
:103F500000B00446CDF804900295002840F0B881E6
:103F6000A94B1B785B2B00F2B381A84BDFF8D8B2CA
:103F70001E602C21304601F015FC01363860814668
:103F80002A213046CBF8006001F00CFC0546CAF847
:103F90000000002800F09C81B9F1000F00F098812A
:103FA000C3780D2B40F09481DFF8A092831B1A4652
:103FB000314648460135039301F0ACFB039BCBF837
:103FC00000502146284609F8034001F0EBFB904BD6
:103FD000CAF80000461B32461846294601F09AFBF3
:103FE00010222146845502F09BFA88F800004846CA
:103FF000FFF77EFF834B98F9002093F900309A4237
:1040000040F06681B8463E46804FD8F80050396887
:10401000A942B94632D0012C30D17E4B6D1A1846D8
:104020002A4601F077FB0022425501F045FB07EEDE
:10403000900A029B7849F8EEE77A42F21072C3EDDB
:10404000007AFDEEE77A754B17EE900A90FBF2F2DC
:10405000D2B21A7001FB0201642391FBF3F1CBB2DF
:104060006F49C2EB02120B7003EB830100EB0212EB
:10407000C3EBC10302EB83036A4A137039683568E6
:10408000A9422ED0022C2CD1624B6D1A18462A461A
:1040900001F040FB0022425501F00BFB51EC100BEC
:1040A000FCF79EFD07EE100A019BDFED5F6A1860CA
:1040B000FDEEC77A642217EE903A93FBF2F35A436F
:1040C00007EE902AF8EEE77A77EE677A87EEA67A1F
:1040D00007EE903AF8EEE77A544B77EE277AC3ED85
:1040E000007A3968D6F800A0514515D0032C30D19C
:1040F000484BAAEB010A5246184601F00BFB00227E
:1041000000F80A200378532B06D1484BD3ED007AF0
:10411000F1EE677AC3ED007A3968D6F800A0514510
:1041200064D0052C45D13B4BAAEB010A52461846F8
:1041300001F0F0FA002200F80A200378572B06D18C
:104140003B4BD3ED007AF1EE677AC3ED007A356828
:104150009EE0042CE5D12F4BAAEB010A18465246EB
:1041600001F0D8FA002200F80A2001F0A2FA51EC7E
:10417000100BFCF735FD07EE100A009BDFED2A6AF5
:104180001860FDEEC77A642217EE903A93FBF2F3C3
:104190005A4307EE902AF8EEE77A77EE677A87EED1
:1041A000A67A07EE903AF8EEE77A214B77EE277A77
:1041B000B0E7092C4CD1174BAAEB010A184652461E
:1041C00001F0A8FA002200F80A2001F072FA51EC7E
:1041D000100BFCF705FD174B1860B8E7681C2C2185
:1041E000C9F8000001F0DEFA30605BE00D464FE0F8
:1041F000220B00206C0A0020D1060020E00B0020DA
:104200008B9B0008BC060020230B0020780B0020AD
:10421000200B0020440B0020F0D8FFFFCA0600202E
:1042200058070020C407002000007042300700201B
:1042300050070020B00600207C0B00202C0B002033
:10424000D0060020280B0020E40B0020E80B002003
:104250000A2C396835681BD1254BA5EB010A52465B
:10426000184601F057FA002200F80A200378462B7E
:10427000B4D1DFF88490D9F80000FCF765F91AA3EF
:10428000D3E90023FCF7B4F9FCF7AAFCC9F8000055
:10429000681C2C21386001F085FA01340B2C306049
:1042A0007FF4B2AE134B1B780B2B01D1FFF7ACFDA3
:1042B000114BD3ED007A114B93ED007AB4EE677A8F
:1042C000F1EE10FA1FBF0E4AC3ED007A0121117002
:1042D0005C2200210B4801F028FA0B4B00221A70D7
:1042E00005B0BDE8F08F00BFE544BB0A293F0A4096
:1042F000440B00200C000020B0060020B407002072
:104300003C070020D1060020230B00200000000005
:1043100084B0F8B52DED028B08AC84E80F002E4B6D
:104320002E4F2F4D9FED2F8A00221A70204600231A
:104330003B602B60FDF7C4F807EE900AF8EE677A51
:104340001DA8C7ED007AFDF7BBF807EE900AF8EE5E
:10435000677A08A8C5ED007AFCF7D4FF1DA8FCF722
:10436000D1FF012108A8FDF733F801211DA8FDF7B1
:104370002FF8D7ED007A1C4C87EE887A2378DEB2CE
:1043800017EE100AFCF7E0F811A3D3E90023FCF7BD
:104390002FF9FCF725FC95ED007A144BC7EE087A4F
:1043A00003EB860318602278114B03EB82039FED29
:1043B000117A67EE877AC3ED007A23780133DBB296
:1043C0002370BDEC028BBDE8F84004B0704700BF1D
:1043D0006666666666663040240B0020400B00204F
:1043E000340B002000F07F456A0A0020880B002073
:1043F000B00A00200000AD43F8B5DFED2D7A2D4B5B
:104400002D4A2E4D2E4FDFF8C8E000202DED028BF7
:10441000B0EE677AC3ED007AC2ED007A01462C4611
:104420002E78B1422EDB18B183ED007AC2ED007A0E
:104430002178D2ED006A07EE101AB8EEC77A21494A
:10444000C6EE877A93ED007AFCEEE77A17EE902AB3
:104450000A70227807EE902AF8EEE77A87EE278A2C
:1044600018EE100AFCF770F80FA3D3E90023FCF74D
:104470004FFB154BA0B983ED008A00232370BDECE0
:10448000028BF8BD88003E18D6ED006A704437EE06
:10449000267AD0ED006A013177EEA67A0120BFE7D7
:1044A0000A4A1A60E9E700BFCDCCCCCCCCCC234083
:1044B00000000000840B0020440C00206A0A002049
:1044C000880B0020BD060020D407002066661E4130
:1044D000B00A002038B5194C194D204601224FF47E
:1044E0000061FDF72BFB2A7820460221FDF726FB11
:1044F0006A7820460421FDF721FBAA7820464FF474
:104500000041FDF71BFBEA7820464FF48041FDF7A0
:1045100015FB2A7920464FF40051FDF70FFB6A790D
:1045200020464FF48051FDF709FB204600224FF44E
:104530000061BDE83840FDF701BB00BF0004004842
:10454000C406002070B5444C002501266420FCF709
:1045500067FD25706570A570E57026716671FFF7BF
:10456000B9FF0420FCF75CFDFFF7B4FF2846FCF719
:1045700057FDFFF7AFFF2846FCF752FD2570657029
:10458000A570E57026716571FFF7A4FF2846FCF75A
:1045900047FD25706570A570E57026716571FFF7A0
:1045A00099FF25706570A670E57025716571FFF73C
:1045B00091FF2846FCF734FD25706570A570E57005
:1045C00025716571FFF786FF25706570A670E5702F
:1045D00025716571FFF77EFF3046FCF721FD2570E0
:1045E0006570A570E57025716571FFF773FF257023
:1045F0006570A570E57025716671FFF76BFF04208B
:10460000FCF70EFD25706570A570E570257165716C
:10461000FFF760FF25706570A570E6702671657103
:10462000FFF758FF3046FCF7FBFC25706570A5705E
:10463000E57025716571FFF74DFF25706570A670F7
:10464000E67025716571FFF745FF0A20FCF7E8FC6D
:10465000024B1E7070BD00BFC40600203C07002046
:1046600038B50A4C002525706570A570E570257178
:104670006571FFF72FFF012325706570A570E57048
:1046800025716371BDE83840FFF724BFC4060020E0
:1046900038B50A4C0025012325706570A370E370BE
:1046A00025716571FFF716FF25706570A570E570BF
:1046B00025716571BDE83840FFF70CBFC4060020C6
:1046C000362870B56D4C00F09D804FF0010528D85C
:1046D000322868D013D8302847D0312853D000254D
:1046E000012626706570A570E57026716571FFF76B
:1046F000F1FE26706570A570E570257151E03428D3
:104700006DD04FF000065DD925706670A670E6701A
:1047100025716571FFF7DEFE25706670A670E57085
:104720003EE0392800F0898010D8372878D0382822
:10473000D5D1002625706670A670E670257165716A
:10474000FFF7C8FE25706670A5701AE0432800F0D8
:104750008D806D287DD04228C1D1002625706670DD
:10476000A670E5702671667124E0002625706670DB
:10477000A670E67025716571FFF7ACFE2570667056
:10478000A670E67038E0002625706670A670E670A8
:1047900025716571FFF79EFE25706670A670E67044
:1047A000267165712AE0002625706670A670E67095
:1047B00025716571FFF78EFE25706670A670E67034
:1047C00025711AE025706670A670E6702571657116
:1047D000FFF780FE25706670A670E6708DE70026F4
:1047E00025706670A670E67025716571FFF772FE20
:1047F00025706670A670E57026716671BDE8704020
:10480000FFF768BE0126002526706570A570E5706B
:1048100026716671FFF75EFE26706570A570BEE7B3
:10482000002625706670A670E67025716571FFF729
:1048300051FE25706670A6705EE7002625706670D2
:10484000A670E67025716571FFF744FE25706670ED
:10485000E4E7002625706670A670E5702571667124
:10486000FFF738FE25706670A57058E700262570A2
:104870006670A670E57026716671A9E7C40600200F
:104880002DE9F0474C4C2378413B86B0032B00F2D6
:104890008A80DFE803F0026E7B8B484DDFF854918D
:1048A000474ADFF854A1DFF84881464F00231370D0
:1048B0002B6089F80030C5F803308AF80030C8F85A
:1048C0000030414B414AD3ED007AFDEEE77A0A21F0
:1048D00017EE903AC2ED007A28463D4A00F02EFFCE
:1048E0003C4B3D4A1B680621384600F027FF28460E
:1048F000FBF76EFC394BC0F109001B78C6B289F892
:1049000000603846DFF8F4901BB3FBF761FC8DE8DC
:104910004002C0F10600C0B2314A8AF80000049794
:10492000CDF80C9002902B4611212E4800F006FF86
:104930002C4BC8F80030FFF793FE42232370FCF79E
:1049400069FB07EE900A284BF8EE677AC3ED007A10
:1049500029E0FBF73DFCC0F10700C0B28AF8000077
:104960000497CDF80C9002908DE840022B461F4A28
:10497000DAE71F4B1B681878FFF7A2FE432323706A
:104980000F4B1B78072BDAD14423D7E7184B1A6853
:10499000511C19600A490B7801330B7042232370B4
:1049A000537803B9237006B0BDE8F0874323237022
:1049B000FFF76EFEC3E700BF0D000020B406002025
:1049C000420C0020CC070020B0060020800B002005
:1049D0006C9B0008C8070020709B0008680A002034
:1049E000749B00083D070020B8070020809B00084A
:1049F00038070020690A0020310B0020E29B0008E4
:104A000038B5144A144D1378144C012B09D1144BAA
:104A10004121197000231370124A137000232B6078
:104A20002360FCF7F7FA07EE900A94ED007AF8EEAF
:104A3000677AC5ED007A77EEC77AB0EE007AF4EEC9
:104A4000C77AF1EE10FA03D9BDE83840FFF718BF76
:104A500038BD00BF3C070020C0060020B80700207A
:104A60000D0000203407002070B5154D154C0023B3
:104A70002B7076236370144B6360144BA360012684
:104A8000134BE3602046A670FEF75FFE052384F813
:104A900038300223287084F83930214604231F203F
:104AA00084F83B3084F83A6084F83C60FEF73EFFBF
:104AB000214628700320FEF774FF287070BD00BFE8
:104AC0000C0B0020700A0020893C0008C93C00083B
:104AD000833C000838B51A4C1A4A1B4D2146072062
:104AE000FFF7A8F8194B216818706068A468642360
:104AF00090FBF3F0164B32281860C4BF32201860C8
:104B000018682830B8BF6FF027004FF47A72B1FBF5
:104B1000F2F1104AB8BF18609629116084BF96213F
:104B200011601A680C4B196891421EBF0B491A603C
:104B300001204FEA942418BF08702C6038BD00BFD4
:104B4000100B0020700A0020CC0600200C0B002067
:104B5000C8070020C0070020BC0700203C07002039
:104B600010B50C4C0C4B23600C4B636001210C4BBB
:104B7000A360204600F0F7F80221204600F0C5F8B7
:104B80000021204600F0D8F820460021BDE8104062
:104B900000F07BB8000B0020ED3C0008AD3C0008A5
:104BA0006408002073B5294801A900F0F3F89DF8C6
:104BB0000430002B47D0264E2448264D264C002397
:104BC00031463360B38000F0F3F8B6F9000000F02E
:104BD00057F8BDEEC00AB6F9020010EE103A5B427B
:104BE0002B6000F04DF8BDEEC00AB6F9040084ED6C
:104BF000000A00F045F82A681849B2F57A7FA4BF88
:104C000040F2E7302860FDEEC07A2068C1ED007AFE
:104C100017EE903AB0F57A7FA4BF40F2E7302060FB
:104C2000B3F57A7FA4BF40F2E7330B6028680C4BE2
:104C30000A6898422068B8BF2B609842B8BF2360CA
:104C40009A42B8BF0B6002B070BD00BF000B0020DD
:104C5000380B0020A4060020A8060020AC06002087
:104C600019FCFFFF10B444688068A4465DF8044B4B
:104C7000604710B404688068A4465DF8044B604740
:104C800000EE100ABAEECE0A704737B501230C4683
:104C90006A4620210546FFF7E5FF00BB012301AA74
:104CA00023212846FFF7DEFFC8B9D4B99DF80030AC
:104CB00064F3C3038DF800309DF8043043F008031B
:104CC0008DF8043001236A4620212846FFF7D1FFE2
:104CD00028B9012301AA23212846FFF7CAFF03B000
:104CE00030BD012C0AD19DF8003060F3C3038DF86C
:104CF00000309DF8043060F3C303E1E7022CE1D1FA
:104D00009DF8003043F00803F1E737B501230D4665
:104D100001AA20210446FFF7A5FF58B99DF80430E9
:104D200065F307138DF8043001AA012320212046E2
:104D3000FFF79FFF03B030BD37B501230D4601AA31
:104D400023210446FFF78EFF58B99DF8043065F320
:104D500005138DF8043001AA012323212046FFF713
:104D600088FF03B030BD37B501230D4601AA2321CA
:104D70000446FFF777FF58B99DF8043065F3C71371
:104D80008DF8043001AA012323212046FFF771FF8B
:104D900003B030BD13B501230C4601AA2721FFF74C
:104DA00061FF9DF80430C3F3C003237002B010BD4F
:104DB0000A4606232821FFF755BF30B597B02822B1
:104DC00000210CA800F0B1FC14220021684600F07C
:104DD000ACFC1C22002105A800F0A7FC01231093C5
:104DE0001023022511930CA84FF4601315930C9512
:104DF0001395FDF701FA0F2300248DE828002946BA
:104E00004FF480636846039302940494FDF79CFC7E
:104E1000A123059305A84FF4807307940993089480
:104E2000FDF76CFD17B030BD2DE98048B9B0FCF737
:104E3000D3F8BB4BBB4DDFF84493BB4E00271F702C
:104E4000BA4B1F70BA4B1F70BA4B1F70BA4B1F7012
:104E5000BA4B1F70BA4B1F70BA4B1F70BA4B1F6012
:104E6000BA4B1F60FFF7A9FF3946142232A800F0A1
:104E70005CFCB74B5A6942F400225A615A6902F449
:104E800000222B922B9A5A6942F480025A615A6985
:104E900002F480022C922C9A5A6942F400325A6130
:104EA0005A6902F400322D922D9A5A6942F48022F6
:104EB0005A615B6903F480233A462E934FF4907154
:104EC0004FF090402E9BFCF739FE3A464FF6060114
:104ED000A048FCF733FE4FF40053329332A99E4BA7
:104EE0009E4833934FF001083497FCF76DFD4FF463
:104EF000907332A94FF090403293CDF8CC80349724
:104F00003597FCF761FD4FF6060332A991483293BD
:104F1000CDF8CC8034973597FCF756FD9048914AF0
:104F200087604FF416430C2480E80C00C7600761CB
:104F300044618761C76107624762FEF7ABF98A493E
:104F4000AF604FF4E133284685E80A00EF602F6137
:104F50006C61AF61EF612F626F62FEF79BF9102207
:104F6000394632A800F0E1FB4FF080404FF47A63FD
:104F700089E8090043F67F634846C9F80C30C9F850
:104F80000870C9F81070C9F818704FF4805A2F973C
:104F900030973197FDF76AFE32A94846734CCDF839
:104FA000C8A0FDF787FE2FA948462F973197FDF738
:104FB00037FF1822394632A84FF0040B2F9730974D
:104FC000319700F0B2FB4FF0A043204684E8880000
:104FD000A7602761E76167622763C4F82C80E760F8
:104FE000C4F820806763C4F814B0A761A763FCF716
:104FF00091F82FA920462F97FCF7E6FB062232A94D
:1050000020463292CDF8CC803597CDF8D0803697B7
:105010003797FCF759FA3946182232A800F085FB79
:10502000534AB760304686E884003761F76177629B
:105030003763C6F82C80F760C6F820807763C6F81F
:1050400014B0B761B763FCF765F8072332A930469F
:105050003293CDF8CC803597CDF8D08036973797FE
:10506000FCF732FA3946102232A800F05EFBDFF876
:1050700010B1404ACBF808704FF47A638BE80C000B
:10508000584640F21F32CBF80C20CBF81070CBF80A
:1050900018702F9730973197FDF7E8FD32A95846E1
:1050A000CDF8C8A0DFF8DCA0FDF704FE2FA9584614
:1050B0002F973197FDF7B4FEDFF8CCE02E4ACAF8FF
:1050C000087050468AE80440CAF80C80CAF810708C
:1050D000CAF81470CAF81870CAF81C70CAF82070A0
:1050E000FCF777FE39465046FDF73AF83946504608
:1050F000FDF75CF8D9F80020DBF800301168DFF824
:105100004490124F41EA08011160196841EA080110
:105110001960D16841EA0801D160DA6836E000BF61
:10512000300B00204409002010080020230B002031
:105130006A0A0020DC0B0020410C0020680A0020D5
:10514000220B0020240B0020640A0020D80B002032
:105150000010024000040048000021100008004830
:10516000F40900200044004000380140F00800200D
:10517000000100500004004000540040B409002029
:10518000B0080020640800200E09002042EA08024E
:10519000DA602046FCF7B6F83046FCF7B3F8424632
:1051A0003C492846FDF76EFE41462046FCF710F9C3
:1051B00041463046FCF70CF9FFF756FCFFF7D0FCF0
:1051C000FFF7C0F9344B2793344B2893DFF8DC808A
:1051D000334B299304F1100B05F1100AFBF71AFF6A
:1051E0003860FFF70DFC299B1B780BB1FEF78CFE96
:1051F00099F800306BB15422314611A800F08AFAB8
:1052000044225946684600F085FA94E80F00FFF7FB
:105210007FF8279B1B78EBB1FFF7EEF8FFF75AFCFE
:10522000FFF7C0FC60225146684600F073FA95E82B
:105230000F00FEF769FD289B1B785BB1194B1B78AB
:1052400043B160225146684600F064FA95E80F00C9
:10525000FEF71EFEFBF7DEFEC8F80000D8F80030AF
:105260003A689B1A07EE903A0F4AF8EEE77A92ED09
:10527000007AF4EEC77AF1EE10FAAFDDD8F800301C
:1052800039685B1A07EE903AF8EEE77AC2ED007AD9
:10529000A4E700BFD1060020410C0020680A0020CE
:1052A000220B00200C00002054070020640A00207C
:1052B0000C4B07B59A6942F001029A619A6902F0B3
:1052C00001020092009ADA6942F08052DA61DB69E9
:1052D00003F0805301930720019BFCF7E9FA03B028
:1052E0005DF804FB0010024010B514228AB0044699
:1052F00000210DEB020000F018FA2368B3F1A04F73
:1053000022D1204A13680133012B13601E4B08D1B0
:105310005A6942F080525A615A6902F080520192F1
:10532000019A5A6942F400225A615B6903F400232E
:105330000293029B0123059305A9032313480693B7
:10534000FCF742FB0AB010BD114A9342FAD10D4A54
:1053500013680133012B13600B4B08D15A6942F0DB
:1053600080525A615A6902F080520392039A5A6934
:1053700042F400225A615B6903F400230493049B06
:105380000223D8E79C0600200010024000080048D5
:105390000001005010B5044688B01422002103A873
:1053A00000F0C3F92268134B9A4220D1124C1348E3
:1053B000636943F480236361636903F48023019389
:1053C000019BC0230393122304930123059303231A
:1053D000069303A904230793FCF7F6FAE36943F461
:1053E0000013E361E36903F400130293029B08B026
:1053F00010BD00BF005400400010024000040048EF
:105400000368B3F1804F07B515D103F504331C20B1
:10541000DA6942F00102DA61DB69002203F001037C
:1054200000931146009BFCF755FA1C20FCF786FA06
:1054300003B05DF804FB0A4A9342F9D1094BDA69DB
:1054400042F00202DA61DB69002203F002030193F9
:105450001D201146019BFCF73DFA1D20E6E700BF29
:10546000000400400010024010B514228AB0044627
:1054700000210DEB020000F058F92368274A9342FF
:1054800028D1274B27489A6942F480429A619A6949
:1054900002F480420192019A5A6942F400225A6150
:1054A0005B6903F400230293029B302305930223DC
:1054B00006930323089305A907230993FCF784FAAD
:1054C000002225201146FCF705FA2520FCF736FAC4
:1054D0000AB010BD144A9342FAD1114BDA6942F472
:1054E0000032DA61DA6902F400320392039A5A69EF
:1054F00042F400325A615B6903F400330493049B65
:105500000C230593022306930323089305A907237D
:105510004FF090400993FCF757FAD9E70038014063
:105520000010024000080048004400407047FEE7B9
:10553000FEE7FEE7FEE7704770477047FBF75EBD8A
:1055400008B50348FDF797FA024B01221A7008BD0F
:10555000B4090020410C002008B50348FDF78BFA80
:10556000024B01221A7008BDB0080020240B002055
:1055700008B5104B1B68998C0F4B1A785B2A9EBF9D
:105580001A780E48D2B2C9B298BF81541A78094825
:1055900001320A29D2B21A7008BF094B074904BF69
:1055A00001221A700122FDF76DFC0248BDE8084097
:1055B000FDF714BF44090020230B0020D106002072
:1055C000220B002008B50A4B1968024609B909499F
:1055D00019601868694602448A4206D900F070F8DA
:1055E0000C2303604FF0FF3008BD1A6008BD00BFF8
:1055F000A0060020580C00201549D1F8883043F44B
:105600007003C1F88830134B1A6842F001021A6027
:105610005868114A02405A601A6822F0847222F4D3
:1056200080321A601A6822F480221A605A6822F4C2
:10563000FE025A60DA6A22F00F02DA62186B074A39
:1056400002401A6300229A604FF000638B6070473B
:1056500000ED00E0001002400CC07FF8CCFC00FF21
:10566000DFF834D0002103E00C4B5B584350043189
:105670000B480C4B42189A42F6D30B4A02E0002327
:1056800042F8043B094B9A42F9D3FFF7B5FF00F00B
:105690001DF8FFF7C9FBFEE700300020D09E000890
:1056A000000000208006002080060020580C00200A
:1056B000FEE7002100F0A0BE0A22002100F030BF6A
:1056C000014B1868704700BF1000002070B50D4EE8
:1056D0000D4CA41BA4100025A54209D10B4E0C4C67
:1056E00004F026FAA41BA4100025A54205D170BD24
:1056F00056F8253098470135EEE756F8253098479B
:105700000135F2E7C89E0008C89E0008C89E000840
:10571000CC9E000810B5431E0A44914200D110BD32
:1057200011F8014B03F8014FF7E702440346934297
:1057300000D1704703F8011BF9E700000CB430B545
:10574000174B0C1E9DB01D6808DA8B232B604FF0A1
:10575000FF301DB0BDE8304002B070474FF4027317
:10576000ADF8143014BF04F1FF33234604930793BC
:105770004FF6FF7302900690ADF81630209A21ABD9
:1057800002A92846019300F0E3FE431CBCBF8B2313
:105790002B60002CDDD0029B00221A70D9E700BFDD
:1057A00010000020C9B2034610F8012B1AB1914233
:1057B000F9D11846704700290CBF184600207047E1
:1057C00010B56AB10139841810F8013B11F8012FA6
:1057D000934203D1A04201D0002BF5D1981A10BDFD
:1057E000104610BD70B504460D4645EC104B1646EC
:1057F00003F000FD51EC100B7EB1C5F30A53C3F169
:105800006B03002B09DD1B0503F17F55002405F513
:10581000401522462B46FAF7EBFE70BD0000000053
:105820002DE9F04F9FB098460490002340460C4667
:1058300015921A9302F0DAFF07460068FAF7C8FCDF
:105840004FF0000A05464FF0000B1994199B1A7887
:105850000D2A33D8092A37D2002A3FD000230993D2
:10586000199E3378302B40F003817378582B01D088
:10587000782B6BD1099B01931AAB0093CDF808806C
:105880001BABAD4A049819A902F0DAFC10F007042A
:10589000054605D0062C2BD1013600231996099315
:1058A000159B002B40F09085099BE3B152460BF10C
:1058B000004343EC102B1FB0BDE8F08F2B2A06D01D
:1058C0002D2A13D0202AC9D101331993BEE7002213
:1058D00009925A1C19925B78002BC1D1159B19941F
:1058E000002B40F06F8552465B46E2E70122EFE76E
:1058F0001A9A3AB135211CA803F06DFD1A99049843
:1059000003F0ECF9013C042C08D8DFE804F00C03A8
:10591000171A0C00DDF870A0DDF874B02907BFD5A8
:105920004BF0004BBCE71D9B1B9ADDF870A023F4E5
:10593000801302F2334243EA025BEFE7DFF804B27E
:10594000ECE76FF0004B4FF0FF3AE7E7199B5A1C6A
:1059500019925B78302BF9D0002BA1D001234FF0A6
:1059600000090893199B0A93CDF81C90CDF8189064
:105970000A2219980678A6F13003D9B2092979D9F3
:105980002A463968FFF71CFF002800F082800020BB
:10599000069D334602460146652B02D0452B40F05A
:1059A000E88025B910B9089B002B97D00025199CD9
:1059B000631C199363782B2B00F0C8802D2B00F00B
:1059C000CB8000260596A3F13006092E00F2D08088
:1059D000302B00F0C380A3F13106082E00F2C980FD
:1059E000A3F1300E199B4FF00A0C1F46199B5E1C49
:1059F00019965B78A3F13008B8F1090F40F2B38033
:105A0000F61B082E44F61F6802DCF045A8BFF046DE
:105A1000059E0EB1C8F10008002D40F0D08000288E
:105A20007FF43EAF089A002A7FF43AAF00297FF452
:105A300055AF4E2B00F0A68000F39E80492B7FF4DB
:105A40004DAF3E4919A802F02BFE00283FF446AFA7
:105A5000199B3B49013B19A8199302F021FE10B98B
:105A6000199B01331993DFF8DCB04FF0000A17E7F8
:105A7000002374E706990829DDBF079902FB01336B
:105A8000079302FB0939069B0130013306931990F5
:105A90006FE7199B5A191992069A5B5D002A48D143
:105AA0001046302B2AD0A3F13102082A00F291844B
:105AB000199A0A92024600200546303B00F1010186
:105AC00011D00A4400EB050C29460A2661451BD17A
:105AD0002844082800F1010525DC07980A2101FB6C
